{
	"contracts/welcome-solidity.sol": {
		"WelcomeSolidity": {
			"abi": [
				{
					"inputs": [],
					"stateMutability": "nonpayable",
					"type": "constructor"
				},
				{
					"inputs": [],
					"name": "getResult",
					"outputs": [
						{
							"internalType": "uint256",
							"name": "",
							"type": "uint256"
						}
					],
					"stateMutability": "view",
					"type": "function"
				}
			],
			"devdoc": {
				"kind": "dev",
				"methods": {},
				"version": 1
			},
			"evm": {
				"assembly": "    /* \"contracts/welcome-solidity.sol\":32:289  contract WelcomeSolidity {... */\n  mstore(0x40, 0x80)\n    /* \"contracts/welcome-solidity.sol\":64:95  constructor() public {... */\n  callvalue\n  dup1\n  iszero\n  tag_1\n  jumpi\n  0x00\n  dup1\n  revert\ntag_1:\n  pop\n    /* \"contracts/welcome-solidity.sol\":32:289  contract WelcomeSolidity {... */\n  dataSize(sub_0)\n  dup1\n  dataOffset(sub_0)\n  0x00\n  codecopy\n  0x00\n  return\nstop\n\nsub_0: assembly {\n        /* \"contracts/welcome-solidity.sol\":32:289  contract WelcomeSolidity {... */\n      mstore(0x40, 0x80)\n      callvalue\n      dup1\n      iszero\n      tag_1\n      jumpi\n      0x00\n      dup1\n      revert\n    tag_1:\n      pop\n      jumpi(tag_2, lt(calldatasize, 0x04))\n      shr(0xe0, calldataload(0x00))\n      dup1\n      0xde292789\n      eq\n      tag_3\n      jumpi\n    tag_2:\n      0x00\n      dup1\n      revert\n        /* \"contracts/welcome-solidity.sol\":134:286  function getResult() public view returns (uint){... */\n    tag_3:\n      tag_4\n      tag_5\n      jump\t// in\n    tag_4:\n      mload(0x40)\n      tag_6\n      swap2\n      swap1\n      tag_7\n      jump\t// in\n    tag_6:\n      mload(0x40)\n      dup1\n      swap2\n      sub\n      swap1\n      return\n    tag_5:\n        /* \"contracts/welcome-solidity.sol\":176:180  uint */\n      0x00\n        /* \"contracts/welcome-solidity.sol\":192:198  uint a */\n      dup1\n        /* \"contracts/welcome-solidity.sol\":200:201  1 */\n      0x01\n        /* \"contracts/welcome-solidity.sol\":192:201  uint a =1 */\n      swap1\n      pop\n        /* \"contracts/welcome-solidity.sol\":212:218  uint b */\n      0x00\n        /* \"contracts/welcome-solidity.sol\":221:222  2 */\n      0x02\n        /* \"contracts/welcome-solidity.sol\":212:222  uint b = 2 */\n      swap1\n      pop\n        /* \"contracts/welcome-solidity.sol\":233:244  uint result */\n      0x00\n        /* \"contracts/welcome-solidity.sol\":252:253  b */\n      dup2\n        /* \"contracts/welcome-solidity.sol\":250:251  a */\n      dup4\n        /* \"contracts/welcome-solidity.sol\":250:253  a+b */\n      tag_9\n      swap2\n      swap1\n      tag_10\n      jump\t// in\n    tag_9:\n        /* \"contracts/welcome-solidity.sol\":247:248  5 */\n      0x05\n        /* \"contracts/welcome-solidity.sol\":247:254  5*(a+b) */\n      tag_11\n      swap2\n      swap1\n      tag_12\n      jump\t// in\n    tag_11:\n        /* \"contracts/welcome-solidity.sol\":233:254  uint result = 5*(a+b) */\n      swap1\n      pop\n        /* \"contracts/welcome-solidity.sol\":272:278  result */\n      dup1\n        /* \"contracts/welcome-solidity.sol\":265:278  return result */\n      swap4\n      pop\n      pop\n      pop\n      pop\n        /* \"contracts/welcome-solidity.sol\":134:286  function getResult() public view returns (uint){... */\n      swap1\n      jump\t// out\n        /* \"#utility.yul\":7:84   */\n    tag_13:\n        /* \"#utility.yul\":44:51   */\n      0x00\n        /* \"#utility.yul\":73:78   */\n      dup2\n        /* \"#utility.yul\":62:78   */\n      swap1\n      pop\n        /* \"#utility.yul\":7:84   */\n      swap2\n      swap1\n      pop\n      jump\t// out\n        /* \"#utility.yul\":90:208   */\n    tag_14:\n        /* \"#utility.yul\":177:201   */\n      tag_19\n        /* \"#utility.yul\":195:200   */\n      dup2\n        /* \"#utility.yul\":177:201   */\n      tag_13\n      jump\t// in\n    tag_19:\n        /* \"#utility.yul\":172:175   */\n      dup3\n        /* \"#utility.yul\":165:202   */\n      mstore\n        /* \"#utility.yul\":90:208   */\n      pop\n      pop\n      jump\t// out\n        /* \"#utility.yul\":214:436   */\n    tag_7:\n        /* \"#utility.yul\":307:311   */\n      0x00\n        /* \"#utility.yul\":345:347   */\n      0x20\n        /* \"#utility.yul\":334:343   */\n      dup3\n        /* \"#utility.yul\":330:348   */\n      add\n        /* \"#utility.yul\":322:348   */\n      swap1\n      pop\n        /* \"#utility.yul\":358:429   */\n      tag_21\n        /* \"#utility.yul\":426:427   */\n      0x00\n        /* \"#utility.yul\":415:424   */\n      dup4\n        /* \"#utility.yul\":411:428   */\n      add\n        /* \"#utility.yul\":402:408   */\n      dup5\n        /* \"#utility.yul\":358:429   */\n      tag_14\n      jump\t// in\n    tag_21:\n        /* \"#utility.yul\":214:436   */\n      swap3\n      swap2\n      pop\n      pop\n      jump\t// out\n        /* \"#utility.yul\":442:622   */\n    tag_15:\n        /* \"#utility.yul\":490:567   */\n      0x4e487b7100000000000000000000000000000000000000000000000000000000\n        /* \"#utility.yul\":487:488   */\n      0x00\n        /* \"#utility.yul\":480:568   */\n      mstore\n        /* \"#utility.yul\":587:591   */\n      0x11\n        /* \"#utility.yul\":584:585   */\n      0x04\n        /* \"#utility.yul\":577:592   */\n      mstore\n        /* \"#utility.yul\":611:615   */\n      0x24\n        /* \"#utility.yul\":608:609   */\n      0x00\n        /* \"#utility.yul\":601:616   */\n      revert\n        /* \"#utility.yul\":628:819   */\n    tag_10:\n        /* \"#utility.yul\":668:671   */\n      0x00\n        /* \"#utility.yul\":687:707   */\n      tag_24\n        /* \"#utility.yul\":705:706   */\n      dup3\n        /* \"#utility.yul\":687:707   */\n      tag_13\n      jump\t// in\n    tag_24:\n        /* \"#utility.yul\":682:707   */\n      swap2\n      pop\n        /* \"#utility.yul\":721:741   */\n      tag_25\n        /* \"#utility.yul\":739:740   */\n      dup4\n        /* \"#utility.yul\":721:741   */\n      tag_13\n      jump\t// in\n    tag_25:\n        /* \"#utility.yul\":716:741   */\n      swap3\n      pop\n        /* \"#utility.yul\":764:765   */\n      dup3\n        /* \"#utility.yul\":761:762   */\n      dup3\n        /* \"#utility.yul\":757:766   */\n      add\n        /* \"#utility.yul\":750:766   */\n      swap1\n      pop\n        /* \"#utility.yul\":785:788   */\n      dup1\n        /* \"#utility.yul\":782:783   */\n      dup3\n        /* \"#utility.yul\":779:789   */\n      gt\n        /* \"#utility.yul\":776:812   */\n      iszero\n      tag_26\n      jumpi\n        /* \"#utility.yul\":792:810   */\n      tag_27\n      tag_15\n      jump\t// in\n    tag_27:\n        /* \"#utility.yul\":776:812   */\n    tag_26:\n        /* \"#utility.yul\":628:819   */\n      swap3\n      swap2\n      pop\n      pop\n      jump\t// out\n        /* \"#utility.yul\":825:1173   */\n    tag_12:\n        /* \"#utility.yul\":865:872   */\n      0x00\n        /* \"#utility.yul\":888:908   */\n      tag_29\n        /* \"#utility.yul\":906:907   */\n      dup3\n        /* \"#utility.yul\":888:908   */\n      tag_13\n      jump\t// in\n    tag_29:\n        /* \"#utility.yul\":883:908   */\n      swap2\n      pop\n        /* \"#utility.yul\":922:942   */\n      tag_30\n        /* \"#utility.yul\":940:941   */\n      dup4\n        /* \"#utility.yul\":922:942   */\n      tag_13\n      jump\t// in\n    tag_30:\n        /* \"#utility.yul\":917:942   */\n      swap3\n      pop\n        /* \"#utility.yul\":1110:1111   */\n      dup2\n        /* \"#utility.yul\":1042:1108   */\n      0xffffffffffffffffffffffffffffffffffffffffffffffffffffffffffffffff\n        /* \"#utility.yul\":1038:1112   */\n      div\n        /* \"#utility.yul\":1035:1036   */\n      dup4\n        /* \"#utility.yul\":1032:1113   */\n      gt\n        /* \"#utility.yul\":1027:1028   */\n      dup3\n        /* \"#utility.yul\":1020:1029   */\n      iszero\n        /* \"#utility.yul\":1013:1030   */\n      iszero\n        /* \"#utility.yul\":1009:1114   */\n      and\n        /* \"#utility.yul\":1006:1137   */\n      iszero\n      tag_31\n      jumpi\n        /* \"#utility.yul\":1117:1135   */\n      tag_32\n      tag_15\n      jump\t// in\n    tag_32:\n        /* \"#utility.yul\":1006:1137   */\n    tag_31:\n        /* \"#utility.yul\":1165:1166   */\n      dup3\n        /* \"#utility.yul\":1162:1163   */\n      dup3\n        /* \"#utility.yul\":1158:1167   */\n      mul\n        /* \"#utility.yul\":1147:1167   */\n      swap1\n      pop\n        /* \"#utility.yul\":825:1173   */\n      swap3\n      swap2\n      pop\n      pop\n      jump\t// out\n\n    auxdata: 0xa2646970667358221220883854bade2038a3be2fa0737dc4dc0a62e98c78691bddf54370247c9b59df6d64736f6c63430008100033\n}\n",
				"bytecode": {
					"linkReferences": {},
					"object": "608060405234801561001057600080fd5b506101a7806100206000396000f3fe608060405234801561001057600080fd5b506004361061002b5760003560e01c8063de29278914610030575b600080fd5b61003861004e565b6040516100459190610099565b60405180910390f35b600080600190506000600290506000818361006991906100e3565b60056100759190610117565b905080935050505090565b6000819050919050565b61009381610080565b82525050565b60006020820190506100ae600083018461008a565b92915050565b7f4e487b7100000000000000000000000000000000000000000000000000000000600052601160045260246000fd5b60006100ee82610080565b91506100f983610080565b9250828201905080821115610111576101106100b4565b5b92915050565b600061012282610080565b915061012d83610080565b9250817fffffffffffffffffffffffffffffffffffffffffffffffffffffffffffffffff0483118215151615610166576101656100b4565b5b82820290509291505056fea2646970667358221220883854bade2038a3be2fa0737dc4dc0a62e98c78691bddf54370247c9b59df6d64736f6c63430008100033",
					"opcodes": "PUSH1 0x80 PUSH1 0x40 MSTORE CALLVALUE DUP1 ISZERO PUSH2 0x10 JUMPI PUSH1 0x0 DUP1 REVERT JUMPDEST POP PUSH2 0x1A7 DUP1 PUSH2 0x20 PUSH1 0x0 CODECOPY PUSH1 0x0 RETURN INVALID PUSH1 0x80 PUSH1 0x40 MSTORE CALLVALUE DUP1 ISZERO PUSH2 0x10 JUMPI PUSH1 0x0 DUP1 REVERT JUMPDEST POP PUSH1 0x4 CALLDATASIZE LT PUSH2 0x2B JUMPI PUSH1 0x0 CALLDATALOAD PUSH1 0xE0 SHR DUP1 PUSH4 0xDE292789 EQ PUSH2 0x30 JUMPI JUMPDEST PUSH1 0x0 DUP1 REVERT JUMPDEST PUSH2 0x38 PUSH2 0x4E JUMP JUMPDEST PUSH1 0x40 MLOAD PUSH2 0x45 SWAP2 SWAP1 PUSH2 0x99 JUMP JUMPDEST PUSH1 0x40 MLOAD DUP1 SWAP2 SUB SWAP1 RETURN JUMPDEST PUSH1 0x0 DUP1 PUSH1 0x1 SWAP1 POP PUSH1 0x0 PUSH1 0x2 SWAP1 POP PUSH1 0x0 DUP2 DUP4 PUSH2 0x69 SWAP2 SWAP1 PUSH2 0xE3 JUMP JUMPDEST PUSH1 0x5 PUSH2 0x75 SWAP2 SWAP1 PUSH2 0x117 JUMP JUMPDEST SWAP1 POP DUP1 SWAP4 POP POP POP POP SWAP1 JUMP JUMPDEST PUSH1 0x0 DUP2 SWAP1 POP SWAP2 SWAP1 POP JUMP JUMPDEST PUSH2 0x93 DUP2 PUSH2 0x80 JUMP JUMPDEST DUP3 MSTORE POP POP JUMP JUMPDEST PUSH1 0x0 PUSH1 0x20 DUP3 ADD SWAP1 POP PUSH2 0xAE PUSH1 0x0 DUP4 ADD DUP5 PUSH2 0x8A JUMP JUMPDEST SWAP3 SWAP2 POP POP JUMP JUMPDEST PUSH32 0x4E487B7100000000000000000000000000000000000000000000000000000000 PUSH1 0x0 MSTORE PUSH1 0x11 PUSH1 0x4 MSTORE PUSH1 0x24 PUSH1 0x0 REVERT JUMPDEST PUSH1 0x0 PUSH2 0xEE DUP3 PUSH2 0x80 JUMP JUMPDEST SWAP2 POP PUSH2 0xF9 DUP4 PUSH2 0x80 JUMP JUMPDEST SWAP3 POP DUP3 DUP3 ADD SWAP1 POP DUP1 DUP3 GT ISZERO PUSH2 0x111 JUMPI PUSH2 0x110 PUSH2 0xB4 JUMP JUMPDEST JUMPDEST SWAP3 SWAP2 POP POP JUMP JUMPDEST PUSH1 0x0 PUSH2 0x122 DUP3 PUSH2 0x80 JUMP JUMPDEST SWAP2 POP PUSH2 0x12D DUP4 PUSH2 0x80 JUMP JUMPDEST SWAP3 POP DUP2 PUSH32 0xFFFFFFFFFFFFFFFFFFFFFFFFFFFFFFFFFFFFFFFFFFFFFFFFFFFFFFFFFFFFFFFF DIV DUP4 GT DUP3 ISZERO ISZERO AND ISZERO PUSH2 0x166 JUMPI PUSH2 0x165 PUSH2 0xB4 JUMP JUMPDEST JUMPDEST DUP3 DUP3 MUL SWAP1 POP SWAP3 SWAP2 POP POP JUMP INVALID LOG2 PUSH5 0x6970667358 0x22 SLT KECCAK256 DUP9 CODESIZE SLOAD 0xBA 0xDE KECCAK256 CODESIZE LOG3 0xBE 0x2F LOG0 PUSH20 0x7DC4DC0A62E98C78691BDDF54370247C9B59DF6D PUSH5 0x736F6C6343 STOP ADDMOD LT STOP CALLER "
				},
				"gasEstimates": {
					"creation": {
						"codeDepositCost": "84600",
						"executionCost": "135",
						"totalCost": "84735"
					},
					"external": {
						"getResult()": "infinite"
					}
				},
				"methodIdentifiers": {
					"getResult()": "de292789"
				}
			},
			"storageLayout": {
				"storage": [],
				"types": null
			},
			"userdoc": {
				"kind": "user",
				"methods": {},
				"version": 1
			}
		}
	}
}